:020000040800F2
:100000009033002005280308152703081727030845
:10001000192703081B2703081D27030800000000F9
:100020000000000000000000000000001F2703087F
:1000300021270308000000002327030825270308C1
:10004000292803082D280308312803083528030828
:10005000392803083D2803084128030845280308D8
:10006000492803084D280308512803085528030888
:10007000592803085D280308612803086528030838
:10008000692803086D2803087128030875280308E8
:10009000792803087D280308812803088528030898
:1000A000892803088D280308912803089528030848
:1000B000992803089D280308A1280308A5280308F8
:1000C000A9280308AD280308B1280308B5280308A8
:1000D000B9280308BD280308C1280308C528030858
:1000E00033270308C9280308CD280308D1280308AB
:1000F000D5280308D9280308DD280308E1280308C8
:10010000E5280308E9280308ED280308F128030877
:10011000F5280308F9280308FD2803080129030826
:1001200005290308092903080D29030811290308D3
:1001300015290308192903081D2903082129030883
:1001400025290308292903082D2903083129030833
:1001500035290308392903083D29030841290308E3
:1001600045290308492903084D2903085129030893
:100170005529030859290308000000000000000069
:100180005D290308612903080846704700281CBF41
:100190000068002801D10020704790F901007047E5
:1001A000816B00291CBFD1F84011002901D00868DB
:1001B00070470068816C0029F9D100207047002940
:1001C00018BF03F085BC704730B5044683B0206D7E
:1001D0000D4678B10FF2200002F044FE0195522343
:1001E00002F05DFBE06C236D2A46A90803B0BDE870
:1001F0003040184737BD00007365745F74696D65E2
:100200007220746F202564206D7300002DE9F04F7B
:10021000B3B006460C4615469946684603F089FC7D
:10022000304603F06DFC060008BFDFF8040D6BD00C
:1002300003F0A2FD0746DDF8F4A0484603F0A4FD54
:10024000C0195044812828BFDFF8E80C5CD248462A
:1002500003F09AFD834613A800EB07085A46494667
:10026000404603F0B9FD3C99524608EB0B0003F001
:10027000B3FD01223146684603F07BFC00280AEBFF
:100280000B0941D12A462146684603F0C1FC4A4683
:10029000414600F041F800F03AF83E9D3F9E0024B0
:1002A00009E003AB00EB040C1B5C05F80C30401CB0
:1002B0008842F6D31446B44268461AD203F02FFDA2
:1002C00009EB070200F027F803A900F021F86846BF
:1002D00003F025FD3A4600F01EF800F018F83A1930
:1002E00096423ABFB6FBF7F007FB10613946002093
:1002F000DEE703F023FC802113A8FFF760FF402115
:1003000003A8FFF75CFF002033B0BDE8F08F13A90E
:10031000684603F0D8BC13A9684603F0C4BC1FB5F7
:1003200000F00AF8062003E01FB500F005F80720EA
:10033000FFF76CFF04B010BD089C039400931346B4
:10034000079C02940A46069C0194014670472DE9D9
:10035000F04F0446E5B0606BDFF868AEDFF8D46BB1
:10036000059040F2F513A56CA06B049052460FF275
:10037000804001F063FC286890F9080003F06CFDF0
:100380005FEA000B286807D190F90800019040F25D
:10039000FB130FF26C400DE090F9090003F0B0FB85
:1003A000079070B9286890F90900019040F2032382
:1003B0000FF26C4000905246012102F02AFE3046B6
:1003C00010E26069DFF8688BDFF8FC9D032811D12B
:1003D00004984FF427714618286890F909000728F7
:1003E0000DD1DFF8E80DB0600FF21D603060DFF86E
:1003F000E00D0CE0CDF8009040F23223A9E1DFF8E7
:10040000D40DB0600FF28D503060DFF8CC0D70600D
:100410004FF42B710498084403900498D0F83003EB
:1004200000286FD104984FF43B710844069040F2C5
:100430004323F068029052460698019003210FF280
:10044000044000F06DFCA06BD0F8440301283DD1BE
:100450000FF20440009040F24B23524602F01FFA84
:10046000A26BD2F89C2208A9204690476069032815
:1004700008D1A06C006890F90900072814BF202754
:10048000302700E02427029708A801904FF4187342
:100490000FF2E430009052460321204603F0D8FECC
:1004A0003020029008AB05980FF2DC322C3001901E
:1004B0000097F1680698D6F808C0E04707001CD0FE
:1004C0000197CAA000904FF41A7355E130200290B2
:1004D0000598039B0FF20C422C30019040200090B5
:1004E000F1680698D6F808C0E047070005D00197E4
:1004F000BEA0009040F275233EE106984221FFF72E
:100500005EFE07E00FF2983000904FF41F735246E2
:1005100002F0C5F90399402254A803F06DFC03983A
:1005200020225CA903F068FC04984FF43373202266
:1005300054A9184403F060FC402154A8FFF73FFE83
:100540004FF48070029014A8019040200090302158
:100550000598039BD6F808C00FF264322C30E047B0
:10056000070005D00197A1A0009040F2962303E177
:100570000598006804F020F9019040F29B230FF2E7
:1005800050300090524602F08AF9302002904FF429
:10059000277305982C30019052460FF24830009096
:1005A000032100F0BEFB4020029040F29D230398FF
:1005B000019052460FF23C3001F012F84FF4807077
:1005C000029040F29E2314A8019052460FF234305C
:1005D00002F00CF803984021FFF7F1FDDBF804006E
:1005E000C00868609BF90100062818BF08282FD1B1
:1005F000002068610C20E860042028612868007FE2
:1006000080074CBF10201820A8606869049040F251
:10061000FF23E86803905246A868029003216868A7
:1006200001900FF2EC2000F0D7FF02F0E4F900F1A6
:100630008780696914A800EB410202926868161865
:1006400014AA114400912F69002F08BFEF683CE005
:100650000799012205F1380003F08BFA070007D152
:100660000799012205F1440003F083FA070006D040
:10067000019740F2BB230FF2C82000907CE007985E
:1006800003F07AFB68610598406F012804BF0A20D7
:100690006861DBF80C006969E8609BF90120072AB2
:1006A00008BFA960B1D0DBF81420B1FBF2F102FB66
:1006B0000121A9606269022A14BF032A4018A3D04D
:1006C000CDF8009040F2F72343E031183A4605F1A7
:1006D000180003F081FB68683018C1193A4605F12B
:1006E000280003F079FB606901282EDB6A6914A9F0
:1006F00005F1380003F08CFA6A69009905F14400AD
:1007000003F086FA2068D0F83CC0BCF1000F08D096
:10071000019714AA6968009105996B69006C2C31E6
:10072000E047594605F1500003F0CDFB07000FF2FA
:10073000242814D00197CDF8008040F26D331BE0DF
:10074000CDF8009040F22D3303E0CDF8009040F258
:1007500049335246012102F05CFC404642E005F17B
:1007600088095946484603F0AEFB070009D00197B7
:10077000CDF800804FF45D73524601F0A0FB38467F
:1007800030E0DBF804200299012305F1500003F06A
:10079000AFFB05000FF2D41704D0019500974FF47A
:1007A0005F730CE0DBF8042000233146484603F079
:1007B0009FFB050008D0019500974FF461735246E6
:1007C00001F07DFB28460DE04FF4807114A8FFF77F
:1007D000F6FC0FF2B010009040F2BD33524602F02A
:1007E00017FC002065B0BDE8F08F00007072660055
:1007F0003D3E20646572697665206B657973000003
:1008000063697068657220696E666F20666F72201A
:100810002564206E6F7420666F756E6400000000A2
:100820006D626564746C735F6D6420696E666F20C1
:10083000666F72202564206E6F7420666F756E641B
:10084000000000007072656D6173746572207365DD
:1008500063726574000000007573696E67206578C7
:1008600074656E646564206D617374657220736570
:10087000637265740000000073657373696F6E20A6
:100880006861736800000000657874656E64656473
:10089000206D617374657220736563726574000006
:1008A0006E6F207072656D61737465722028736558
:1008B0007373696F6E20726573756D6564290000CE
:1008C0006B657920657870616E73696F6E000000EA
:1008D0006369706865727375697465203D2025735E
:1008E000000000006D61737465722073656372654A
:1008F0007400000072616E646F6D206279746573BC
:10090000000000006B657920626C6F636B00000073
:100910006B65796C656E3A2025642C206D696E6C70
:10092000656E3A2025642C2069766C656E3A202528
:10093000642C206D61636C656E3A202564000000B4
:100940006D626564746C735F6D645F7365747570FC
:10095000000000006D626564746C735F63697068A9
:1009600065725F7365747570000000006D62656488
:10097000746C735F6369706865725F7365746B65CF
:10098000790000003C3D20646572697665206B65E6
:100990007973000070B59EB004460E4603A804F0BB
:1009A00063F90FF24C0002F015F840F2164302F022
:1009B0002EFBA06B4FF4AA71014403A804F05DF96B
:1009C000314603A804F059FD20200290019640F220
:1009D0001B4300F05BF80FF2A400009040F21C43B0
:1009E00002F015FB03A804F042F91EB070BD000030
:1009F0003D3E2063616C6320766572696679207381
:100A0000686132353600000070B5BAB004460E4653
:100A100004A804F09DFE0FF24C0001F0DBFF40F251
:100A20002B4302F0F4FAA06B4FF4E071014404A8E8
:100A300004F097FE314604A805F0FFFA302002903A
:100A400001964FF4866300F021F80FF23000009019
:100A500040F2314302F0DBFA04A804F07CFE3AB025
:100A600070BD00003D3E2063616C63207665726955
:100A70006679207368613338340000003C3D2063A0
:100A8000616C632076657269667900000FF20C0074
:100A900000902A460321204603F0DABB63616C63B1
:100AA000756C61746564207665726966792072651B
:100AB00073756C74000000002DE9F04F8DB0044692
:100AC0000FF2B010DFF8FC86DFF86494DFF8F8A6C8
:100AD000009040F2EA43424602F09AFAE06A0028A7
:100AE0001CBF206C002804D1CDF800A040F2EE43DA
:100AF000B8E05030FFF74AFB04F190050646A869BC
:100B0000029040F2F5432869019042460FF27410BA
:100B100000F066FD062E18BF082E40F09F80206C66
:100B20000068007F296880074CBF0826102608222D
:100B300009A803F051F909AF686938720DF12D0366
:100B400000F08CFAA869000A8DF82F0040F25B5380
:100B5000A869387342460D200290042109A800F0CC
:100B600085FA206C0369C168C91A082904D0CDF838
:100B700000A040F2635375E0296818440822183039
:100B800003F02AF92968E868082203F025F9206CA7
:100B9000C1680069081A029040F26C53E86801903D
:100BA00042460FF2F83000F01BFD2F69A86907904C
:100BB0004FF4AF63216CCA6809691018401AA86124
:100BC000019000210FF2DC0002910090424601F0FA
:100BD00066FE079807EB000B206C069608A9CDF877
:100BE00014B00491039709AB0799029101970D2165
:100BF000009100F11801C268503003F041FA07007B
:100C00000AD0019740F285530FF2D400009042467B
:100C100001F055F938462AE008980799884204D02F
:100C2000CDF800A040F28B531CE0A8693018A861F1
:100C30000296CDF804B040F292530FF2C00000903B
:100C40004246042100F06DF80FF2C40000904FF40A
:100C5000C363424602F0DCF9002008E0CDF800A0B2
:100C600040F20D634246012102F0D3F948460DB02F
:100C7000BDE8F08F3D3E20656E637279707420622E
:100C8000756600006265666F726520656E637279D5
:100C900070743A206F7574707574207061796C6F20
:100CA000616400006265666F726520656E637279CB
:100CB00070743A206D73676C656E203D2025642C3E
:100CC00020696E636C7564696E67202564206279A3
:100CD000746573206F662070616464696E670000DC
:100CE0006D626564746C735F6369706865725F617F
:100CF0007574685F656E637279707400616674659F
:100D00007220656E63727970743A207461670000B6
:100D10003C3D20656E6372797074206275660000D8
:100D20000090204603F094BA2DE9F04F8FB00446AE
:100D30000FF20420DFF88C94DFF8F4A1DFF888B418
:100D400000904FF4C5634A4602F062F9A06A002899
:100D50001CBFE06B002804D1CDF800B040F22C633A
:100D6000B7E08830FFF712FAE26BA16F9368DFF803
:100D70002C8D994206D20293019140F235630FF215
:100D8000C81017E0062818BF082840F09E80106899
:100D9000007F8007D06812694CBF08251025801A93
:100DA0002A18914208D203950290019140F265639E
:100DB0000FF2B410009082E0081A461BE06E079014
:100DC0000990A6670822E16D0AA803F005F80AAFAA
:100DD000606F38720DF1310300F040F9A06F000A26
:100DE0008DF8330040F27663A06F38734A460D20C9
:100DF000029004210AA800F039F9E06B0369C16888
:100E0000CA1AA16E1844283002F0E6FFE06BC168F0
:100E100002912830019040F27D630FF2801000F0C3
:100E20003DF9079802958719019740F27E630FF20A
:100E3000741000F033F9E06B0695059708A904914A
:100E40000AAB099903910296079901910D2100912E
:100E500000F12801C268883003F04BF905000DD07D
:100E6000019540F28B630FF2481000904A4601F062
:100E700026F815F5C64F26D0284655E00898B0420A
:100E800004D0CDF800B040F2966322E0A06F02904B
:100E90004FF4EF63E06E01904A460FF2301000F01D
:100EA0009FFBA06FD8B9D4F88400401C0428C4F874
:100EB000840017DB0FF2301000904FF4FD634A46B8
:100EC000012102F0A6F840462EE0CDF800B040F235
:100ED00073734A46012102F09CF8504624E000203A
:100EE000C4F884000820E16D00F086FAE16D014449
:100EF00011F8011C11B9401EF5D100E058B940F2BB
:100F0000FE730FF2241000904A46012102F081F88E
:100F1000DFF8AC0D08E00FF23410009040F6030348
:100F20004A4602F075F800200FB0BDE8F08F0000CF
:100F30000094FFFF008FFFFF3D3E206465637279E0
:100F40007074206275660000696E5F6D73676C6512
:100F50006E2028256429203C206D696E6C656E200A
:100F600028256429000000006D73676C656E2028D9
:100F7000256429203C206578706C696369745F6919
:100F8000765F6C656E2028256429202B20746167AC
:100F90006C656E20282564290000000049562075E4
:100FA0007365640054414720757365640000000058
:100FB0006D626564746C735F6369706865725F61AC
:100FC0007574685F6465637279707400726177200C
:100FD0006275666665722061667465722064656319
:100FE00072797074696F6E007265636569766564A5
:100FF00020666F757220636F6E73656375746976B2
:101000006520656D707479206D65737361676573B4
:101010002C20706F737369626C6520446F5320617C
:10102000747461636B000000696E636F6D696E6755
:10103000206D65737361676520636F756E7465728B
:1010400020776F756C642077726170003C3D20647E
:101050006563727970742062756600002068406F65
:101060006169C0F34002206902F072BB01900FF287
:101070000C000090204603F0EBB800006164646946
:1010800074696F6E616C206461746120757365644E
:1010900020666F72204145414400000000904A469E
:1010A0000421204603F0D4B82DE9F04784B004466B
:1010B0000FF22C10DFF80CA1484F00900D464FF4B2
:1010C0000A63524601F0A4FFE069002804BF206AC9
:1010D000002805D10FF28020009040F6A5030CE017
:1010E000216E41F2B530401AA16D0818A8420AD20B
:1010F0000FF2FC00009040F6AB035246012101F0D4
:1011000088FF38465BE0029540F63E13E06F0FF231
:1011100000170FF218180FF22C1901900097524681
:1011200001F076FF02E0E06F3018E067E06FA84260
:101130003CD2616D2E1A08000CD0E06C8847022862
:1011400008D1CDF800906023524601F0A8FBDFF8EB
:10115000E06C11E0206EE16FD4F820C00144606AB9
:10116000BCF1000F04D02268136E3246E04702E063
:10117000E369324698470646029540F65613E06FFB
:1011800001900097524601F043FF0196CDF8008090
:1011900040F657135246022100F092FE002E02D173
:1011A000DFF8900C0BE0BED5304608E00FF2A4004B
:1011B000009040F66313524601F02AFF002004B06D
:1011C000BDE8F087983700080438000829030008B4
:1011D000F72500081F0300081F250008008FFFFFE8
:1011E0003D3E20666574636820696E70757400000A
:1011F00072657175657374696E67206D6F726520B5
:1012000064617461207468616E20666974730000A3
:10121000696E5F6C6566743A2025642C206E625F8F
:1012200077616E743A2025640000000073736C2DA2
:101230003E665F72656376285F74696D656F75746D
:101240002900000074696D657220657870697265A7
:10125000640000003C3D20666574636820696E7020
:10126000757400002DE9FE4380460FF2DC00DFF8C4
:10127000C89B00904FF4176300F0C5F808F11806FA
:10128000306858B90FF2D000009040F675134A4606
:10129000012100F0BAF8DFF8A40B53E008F1A8042C
:1012A0000FF2F007606830B9009740F67C1346E013
:1012B0006068401B6060606828B3029040F683134A
:1012C0002068401D01904A460FF2D800009000F0BF
:1012D0009BF8F06F21686268336808445142084403
:1012E000411DF06898470546019540F689130FF2B5
:1012F000D80000904A460221404602F07EFF012DB0
:10130000D6DA28461EE00820B16F00F075F8B16FFC
:10131000014411F8011C79B9401EC0B20028F3D174
:101320000FF2B000009040F698134A46012100F0F9
:101330006CF8DFF88C0905E0009740F69C1300F08C
:1013400062F80020BDE8FE833D3E20666C75736840
:10135000206F7574707574004261642075736167E5
:1013600065206F66206D626564746C735F73736C67
:101370005F7365745F62696F2829206F72206D62E8
:101380006564746C735F73736C5F7365745F6269BB
:101390006F2829003C3D20666C757368206F75745A
:1013A000707574006D657373616765206C656E6739
:1013B00074683A2025642C206F75745F6C656674C0
:1013C0003A2025640000000073736C2D3E665F7345
:1013D000656E64006F7574676F696E67206D657305
:1013E0007361676520636F756E74657220776F75C2
:1013F0006C64207772617000014411F8012C521C5A
:1014000001F8012C70474A460221404602F0CFBE47
:10141000F0B5044604F1940585B06F690FF2201011
:10142000DFF8146A009040F68D23324601F0F0FD9B
:101430002869162821D1E868017869B1A26B5AB9E8
:10144000DFF8440D009040F69F233246012101F061
:10145000E0FDDFF8380D71E03A1F130C4370100AFD
:10146000EA689070381FEA68D07031B1A36BE96800
:10147000D3F898323A462046984729682869087078
:1014800028686169431C2068406FC0F340022069EE
:1014900002F05EF900F09AF8206C90B12046FFF758
:1014A0000BFB07000AD00FF2A8000090019740F64E
:1014B0000833324600F003FD38463FE06F6900F024
:1014C00085F840F6163368692968401DA861686888
:1014D0000278407840EA02200490324688780390EF
:1014E000487802900878019003210FF2740000F010
:1014F00073F86869401D029040F61933286801901E
:1015000032460FF2980000F06BF82046FFF7AAFE73
:1015100005000AD0DFF8780C0090019540F61E33E4
:10152000324600F0CCFC284608E00FF29000009014
:1015300040F62233324601F06BFD002005B0F0BDCD
:101540003D3E207772697465207265636F72640036
:1015500073736C5F656E63727970745F6275660039
:101560006F7574707574207265636F72643A206D64
:10157000736774797065203D2025642C2076657230
:1015800073696F6E203D205B25643A25645D2C20D5
:101590006D73676C656E203D202564006F757470F7
:1015A0007574207265636F72642073656E74207445
:1015B0006F206E6574776F726B0000003C3D207782
:1015C00072697465207265636F7264006968380AB5
:1015D00008706868477070470090204602F0E7BDC9
:1015E00000900421204602F033BE30B5044685B099
:1015F000A06FDFF84458042809D2019040F6064352
:101600000FF2600000F01FFBDFF8680D27E0E16ECD
:101610008B784A781B0243EA0242CB781A43121DA8
:10162000C4F88020039240F611430978019002919A
:101630002A460FF2500001F036F9A06FD4F880105E
:1016400088420BD20FF27400009040F64F432A46B6
:10165000012101F0DEFCDFF8E40D00E0002005B020
:1016600030BD000068616E647368616B65206D65F4
:10167000737361676520746F6F2073686F72743A5B
:101680002025640068616E647368616B65206D6518
:1016900073736167653A206D73676C656E203D20DA
:1016A00025642C2074797065203D2025642C2068E9
:1016B000736C656E203D202564000000544C53205F
:1016C00068616E647368616B6520667261676D65E1
:1016D0006E746174696F6E206E6F742073757070B4
:1016E0006F72746564000000416810291CBF836B31
:1016F000002B05D0D0F88020C16ED3F8983218475F
:10170000704770B588B004460520029040F69753A4
:10171000206EDFF82457DFF85C6C01902A460FF248
:101720001410FFF75DFF206E01786167431C616E46
:101730000A78497841EA0221A16705A92068406F2B
:10174000C0F3400206A802F006F8A06F04904FF420
:101750005A63059803902A46069802900321606F09
:1017600001900FF2E400FFF737FF606F162818BFF3
:10177000152814D0142818BF172810D00FF2041001
:10178000009040F6A8532A46012101F042FC0A22AB
:101790000221204600F05FFA002849D145E0069872
:1017A0002169884205D00FF2F000009040F6B7534F
:1017B00037E02068059990F87100884205DA0FF249
:1017C000F000009040F6BD532BE0E36EA06F0FF2E7
:1017D0004C3141F2B532D21AA36D9A18824203D22B
:1017E000009140F6C5531CE0E26B42B918B141F2DA
:1017F000893290421BD3009140F6CF5311E092689A
:10180000904203D2009140F6D7530AE06369012B5E
:101810000DDB02F5A0528832824208D2009140F6D8
:10182000EC532A46012101F0F4FB304600E0002091
:1018300008B070BD696E707574207265636F7264F4
:101840002068656164657200696E707574207265E8
:10185000636F72643A206D736774797065203D2000
:1018600025642C2076657273696F6E203D205B25A0
:10187000643A25645D2C206D73676C656E203D2095
:1018800025640000756E6B6E6F776E207265636FF6
:1018900072642074797065006D616A6F722076657C
:1018A0007273696F6E206D69736D61746368000097
:1018B0006D696E6F722076657273696F6E206D69E7
:1018C000736D6174636800007CB504460FF26000BC
:1018D00001F080F84FF4696301F099FB204600F0B5
:1018E00057F8060006D00FF258000196009040F617
:1018F00096630DE0204600F01BF9064616F5CD4F25
:10190000ECD03EB10FF25800019600904FF46A639C
:1019100000F032BD606F162804BF2046FFF7E4FEDA
:101920000FF25C00009040F6A96300F02CBD0000AF
:101930003D3E2072656164207265636F72640000D1
:101940006D626564746C735F73736C5F7265616400
:101950005F7265636F72645F6C617965720000002D
:101960006D626564746C735F73736C5F68616E64E1
:101970006C655F6D6573736167655F747970650031
:101980003C3D2072656164207265636F7264000083
:10199000FEB50446DFF8A054D4F88010A1B1A06FC2
:1019A000814211D2421AE06EA267014404F074FE33
:1019B000A06F029040F6BD63E06E01902A460FF2E0
:1019C000E000FFF70DFE66E00020C4F8800005216E
:1019D0002046FFF769FB06000FF2E00704D00196EE
:1019E000009740F6CD630FE02046FFF78AFE0028FF
:1019F00034D1A06F411D2046FFF756FB060006D0EC
:101A00000196009740F6F76300F058FA25E00020B1
:101A1000E06740F64963A06F401D02902A46206EA1
:101A2000019004210FF2AC00FFF77AF9E06B90B35C
:101A30002046FFF779F9060011D00FF2B4000090AC
:101A4000019640F65F6300F039FA16F5E34F04D1D2
:101A500014220221204600F0FEF83046FEBDA06FA1
:101A6000029040F66463E06E01902A460FF2900007
:101A7000FFF7B6FDA06F41F2893188420BD30FF218
:101A80009C00DFF8F068009040F668632A46012168
:101A900001F0BFFAE1E70020FEBD0000808EFFFFED
:101AA00072656D61696E696E6720636F6E74656ED5
:101AB0007420696E207265636F7264006D62656484
:101AC000746C735F73736C5F66657463685F696E73
:101AD00070757400696E707574207265636F7264DE
:101AE0002066726F6D206E6574776F726B000000F8
:101AF00073736C5F646563727970745F627566009E
:101B0000696E707574207061796C6F6164206166B4
:101B10007465722064656372797074006261642018
:101B20006D657373616765206C656E67746800002E
:101B30003EB50446606F162804D12046FFF755FDD8
:101B400000283ED1606F15283AD1E06EBA4D417839
:101B5000029140F67973007801902A460FF26400F2
:101B600000F06CF8E06E017802290AD1407801900B
:101B700040F681730FF2700000F065F8DFF8900C0A
:101B80003EBD012904BF4278002A09D10FF27C0032
:101B9000009040F6887301F03AFADFF8780C3EBD09
:101BA000012904BF4078642807D10FF27C0000901F
:101BB0004FF4796301F02BFA02E0DFF8200E3EBD0E
:101BC00000203EBD676F7420616E20616C65727489
:101BD000206D6573736167652C20747970653A2098
:101BE0005B25643A25645D00697320612066617439
:101BF000616C20616C657274206D657373616765DB
:101C000020286D7367202564290000006973206116
:101C100020636C6F7365206E6F74696679206D65E3
:101C20007373616765000000697320612053534C32
:101C30007633206E6F5F636572740000009002213E
:101C4000204602F0B4BA00902A460121204602F054
:101C5000AEBA28220221F0B583B004001CBF206870
:101C600000280D46164601D17448FEBD0FF25400FF
:101C7000714F00904FF47C633A4601F0C9F904F1CA
:101C8000A000152141600221816001680D7000688B
:101C9000467001F033FB05000AD0DFF8440D0090D8
:101CA000019540F6C9733A4600F009F92846FEBD91
:101CB0000FF22800009040F6CD733A4600F057BE70
:101CC0008094FFFF3D3E2073656E6420616C6572F9
:101CD00074206D6573736167650000003C3D20737F
:101CE000656E6420616C657274206D6573736167E5
:101CF000650000002DE9FE430446DFF83C91A06C2E
:101D000006680FF23C10009041F20B034A4601F0C6
:101D10007FF996F90A000FF24011052818BF06282E
:101D200003D0082818BF0B2803D1009141F21203F9
:101D300009E000F060FE04F1A0060BD4306948B958
:101D4000009141F21C034A4601F062F96068401CB0
:101D5000606069E02046FEF723FA019041F23F03FC
:101D60000FF2101000904A460321204602F046FC74
:101D70002046FEF715FA0727804613E03268290C43
:101D8000D155290A32683A4451702A46316839449B
:101D9000FF1C8D7041683068384402F01DF8D8F897
:101DA0003081EF19B8F1000F19D008F1040041F2A9
:101DB00085310568C91BA942E0D241F28830029002
:101DC00041F25303E819C01C01904A460FF2B400D7
:101DD0000090012101F01DF9DFF8140D25E03268B3
:101DE000F81F010C1171000A31684871F81F316841
:101DF000887116207060B7600B203168087001F0A0
:101E00007AFA060008D000F0AFFA41F26F034A46B2
:101E100000F055F8304608E00FF28800009041F2DB
:101E200073034A4601F0F4F80020BDE8FE83000089
:101E30000098FFFF808DFFFF98370008008FFFFF9D
:101E40003D3E2077726974652063657274696669C6
:101E500063617465000000003C3D20736B69702075
:101E60007772697465206365727469666963617409
:101E7000650000006F776E20636572746966696340
:101E80006174650063657274696669636174652075
:101E9000746F6F206C617267652C202564203E2072
:101EA000256400003C3D207772697465206365728B
:101EB0007469666963617465000000002A46012147
:101EC000204602F09AB92DE9F04F054685B0A86C7E
:101ED000DFF8708DD0F800A02868406FC0F381074C
:101EE0000FF2B020009041F27F034246022101F040
:101EF000C9F99AF90A00052818BF062803D008284E
:101F000018BF0B280DD10FF2A420009041F28603D8
:101F10004246022101F0B6F96868401C6860002062
:101F200021E12846FFF7D0FC040006D0DFF8180DA9
:101F30000090019441F2A5037DE068680FF28826C5
:101F4000401C6860686F162807D0009641F2DC03D9
:101F500001F096F9DFF8A40D05E1E86EDFF8A09D29
:101F600001780B2903D1D5F880100A2903D20096F5
:101F700041F2E30390E0027932B94279807940EA94
:101F80000220C01D814203D0009641F2F10383E09C
:101F9000686BC06D38B106F0F0F8686BDFF8641D4F
:101FA000C06D09688847DFF8602D12684FF49A7198
:101FB00001209047696BC86560B94FF49A70019031
:101FC0004FF48853DFF8440D009001F059F9DFF821
:101FD000580DC8E006F0CDF8072000E05846D5F8C7
:101FE000801088422AD2EB6E1A1814781CB1009621
:101FF00041F20C1350E05478927842EA0422C01C5B
:10200000802A24BF02EB000B594503D2009641F20F
:10201000161341E01918686BC06D04F097FE0400B8
:102020001CBFDFF8080D8442D8D00FF2B410009026
:10203000019441F21E1300F055F993E0686BC06DF6
:10204000019041F225130FF2B41000904246032193
:10205000284602F0D3FA2E6896F87400C0071FD401
:10206000A86801281CD1286BC36D2BB90FF2A010F2
:10207000009041F231130FE0686BC06D5A684168FF
:102080008A4204D18168986806F0F4F840B10FF2F2
:10209000A810009041F23B1301F0F2F8484662E0CC
:1020A000002F56D0A86B4FF4A67108440168002990
:1020B0005CD04268686BB36B0393736B029300F15F
:1020C00060030193D5F8B4300093C06D736C05F0D4
:1020D00084FF040007D00FF28C100090019441F2AD
:1020E000661300F0FFF8686BC06D00F1BC060221BA
:1020F000304606F02CF990B1D6E90001FEF744F81D
:1021000090F90010284601F0CFFA40B10FF26810A4
:10211000009041F2751301F0B3F804B94C462968F8
:10212000686B496F00F1600381F0010101F0010269
:10213000C06D514601F0D3FA40B10FF25C1000902F
:1021400041F2811301F09CF804B94C46012F08BFFD
:1021500000240FF26810009041F28A1342460221D7
:1021600001F090F8204605B0BDE8F08FF16C326DBB
:1021700000299FD10FF25C10009041F2551301F03D
:102180007FF8DFF8780CEEE7043800080094FFFFD2
:10219000183800083D3E20706172736520636572D7
:1021A0007469666963617465000000003C3D2073DA
:1021B0006B69702070617273652063657274696603
:1021C0006963617465000000626164206365727414
:1021D00069666963617465206D6573736167650025
:1021E000206D626564746C735F783530395F63723B
:1021F000745F70617273655F6465720070656572AB
:10220000206365727469666963617465000000002B
:102210006E657720736572766572206365727420CF
:10222000647572696E672072656E65676F74696147
:1022300074696F6E000000007365727665722063CA
:10224000657274206368616E676564206475726985
:102250006E672072656E65676F74696174696F6E11
:1022600000000000783530395F7665726966795F05
:1022700063657274000000006261642063657274BB
:102280006966696361746520284543206B65792020
:1022900063757276652900006261642063657274FB
:1022A0006966696361746520287573616765206577
:1022B0007874656E73696F6E732900003C3D207001
:1022C00061727365206365727469666963617465C0
:1022D00000000000676F74206E6F20434120636828
:1022E00061696E0042460121284601F086BF7CB537
:1022F00004460FF23C0000F06DFB41F29A1300F02F
:1023000086FE04F1A0001421416001218160006873
:10231000017000F0F0FF060004D000F025F841F253
:10232000A41329E00FF22400009041F2A8132AE040
:102330003D3E207772697465206368616E67652031
:102340006369706865722073706563003C3D207737
:1023500072697465206368616E676520636970687F
:102360006572207370656300DFF874060090019653
:1023700070470000008EFFFF2A460121204601F031
:102380003CFF304676BD2A460221204601F00FFF71
:10239000002076BD7CB504460FF2A40000F01AFBC5
:1023A00041F2B11300F033FE2046FFF78DFA06002C
:1023B00006D0DFF894080090019641F2B513DBE7F0
:1023C000616F0FF29800142909D0009041F2BB13FD
:1023D0002A46012100F01DFEDFF8200976BDA16F1D
:1023E000012902BFE16E0978012909D0009041F26C
:1023F000C1132A46012100F00CFEDFF8C00A76BDA9
:102400000FF27800009041F2C91300F047FAA06C77
:10241000E0630821606BA062E06D01F059FB616927
:10242000A06E00F0DFFAE06641F2F7136068401C2E
:1024300060602A460FF278000090A5E7808FFFFFCA
:102440003D3E207061727365206368616E67652030
:1024500063697068657220737065630062616420EF
:102460006368616E67652063697068657220737068
:102470006563206D657373616765000073776974C8
:102480006368696E6720746F206E6577207472616F
:102490006E73666F726D207370656320666F722055
:1024A000696E626F756E6420646174610000000083
:1024B0003C3D207061727365206368616E676520C2
:1024C00063697068657220737065630091F9091023
:1024D000806B07290CBF0FF239010FF22901C0F8F8
:1024E0009812704770B504464FF4AA73A06B0D465E
:1024F0001646184402F08AFF32462946A06BBDE812
:10250000704007E0806B4FF4AA73184402F07EBF5E
:10251000D0F838004FF4E073184403F04CBD2DE9B7
:10252000F0410446A6B000F0E9F80BA802F09CFBCD
:102530000FF28400DFF80C87009041F2F823424646
:1025400000F066FDA06B4FF4AA7101440BA802F0E5
:1025500094FB2020029041F204330DA801904246E2
:102560000FF2740000F042F8002F0CBF0FF2581762
:102570000FF2641703A90BA802F07FFF00F0C4F864
:10258000202000F0D9F800F0BFF841F2103300F03D
:10259000BFF80BA802F06BFB202103A8FDF70FFE8C
:1025A0000FF24410009041F21633424600F030FD25
:1025B00026B0BDE8F08100003D3E2063616C6320E1
:1025C0002066696E697368656420746C7320736833
:1025D000613235360000000066696E6973686564B3
:1025E0002073686132207374617465000090042167
:1025F000204601F02DBE2DE9F0410446C6B000F0A2
:102600007DF810A803F0A4F80FF28400DFF83486F8
:10261000009041F22933424600F0FAFCA06B4FF4DF
:10262000E071014410A803F09CF84020029041F2B0
:10263000353314A8019042460FF27400FFF7D6FF1D
:10264000002F0CBF0FF280070FF28C0703A910A810
:1026500003F0F3FC00F058F8302000F06DF800F0C3
:1026600053F841F2413300F053F810A803F073F827
:10267000302103A8FDF7A3FD0FF26C00009041F29A
:102680004733424600F0C4FC46B0BDE8F08100008C
:102690003D3E2063616C63202066696E69736865E6
:1026A0006420746C73207368613338340000000058
:1026B00066696E69736865642073686135313220BC
:1026C0007374617465000000636C69656E742066E4
:1026D000696E6973686564007365727665722066F9
:1026E000696E6973686564003C3D2063616C6320BA
:1026F0002066696E6973686564000000666B0D464C
:10270000174606B9266B70470C200290019570475A
:102710000FF20C00009042460321204601F098BDC4
:1027200063616C632066696E6973686564207265B5
:1027300073756C7400000000009003AB06F12C0070
:10274000A66BD6F8A4623A4630213047F8B5044665
:10275000DFF8F054A06BD0F830630FF2BC000090AB
:1027600041F2693300F09AF8A068012803D10220F1
:10277000A0600020E060206BDFF8887520B100F0D9
:1027800073FE206B39688847616B216300206063AA
:102790002068426A13001CBF8B68002B0CD05EB906
:1027A000806A904740B10FF28400009041F28C3370
:1027B0002A46012100F02DFC0FF28C00009041F21E
:1027C0004E3300F06BF8A06B00F026FEA06B39686A
:1027D00088470020A063606C20B100F003FE606CAD
:1027E00039688847A06C606441F262330020A064BD
:1027F0002A460FF2740000F056F86068401C6060D2
:102800004FF49D530FF28000009000F047F8F1BDA7
:102810008088FFFF8087FFFF3D3E2068616E647304
:1028200068616B65207772617075700063616368C1
:102830006520646964206E6F742073746F72652004
:1028400073657373696F6E003D3E2068616E6473DB
:1028500068616B65207772617075703A2066696E89
:10286000616C2066726565003C3D2068616E647332
:1028700068616B65207772617075703A2066696E69
:10288000616C2066726565003C3D2068616E647312
:1028900068616B6520777261707570002A4603214C
:1028A000204601F084BC00900321204601F07FBC4B
:1028B000F0B583B004460FF2C00000F08BF841F28F
:1028C000A73300F0A4FB04F190066169F06800F002
:1028D00089F83061206890F87400A36BD3F8A032B7
:1028E00000F001023069011D204698476069002808
:1028F00030690CBF24270C27011D37633A4604F1C9
:10290000C40001F069FA381DB0611620706114200E
:1029100031690870A06BD0F8300320B100F06BF87B
:1029200004D40F2001E06068401C60600FF25C007E
:10293000009041F2DD33FFF7B1FF3068082101F06C
:10294000C7F8A06C2064606BE06200F0D7FC060062
:1029500007D0FFF709FD41F21043FFF7AFFA304609
:10296000FEBD0FF25C00009041F214432A4600F0D5
:102970004FFB0020FEBD00003D3E2077726974656C
:102980002066696E69736865640000007377697416
:102990006368696E6720746F206E6577207472615A
:1029A0006E73666F726D207370656320666F722040
:1029B0006F7574626F756E642064617461000000ED
:1029C0003C3D2077726974652066696E697368653D
:1029D000640000009B4D0090704700008099FFFF4D
:1029E00034380008022905DBA16CCA680969104463
:1029F000494208447047206890F87400C007704747
:102A0000F0B585B004460FF2EC00FFF7E3FF41F2AA
:102A1000254300F0FCFA2068A36B90F87400D3F80B
:102A2000A03200F0010080F0010202A92046984780
:102A30002046FEF749FF060007D083480090019624
:102A400041F22B43FFF73AFA32E0616F0FF2B80020
:102A5000162908D0009041F231432A46012100F0A6
:102A6000D8FAA64842E0E16EDFF8246A0A78142A10
:102A700004BFD4F88020102A03D000904FF4A25352
:102A800012E0091D002200230DF1080CCF5C1CF898
:102A900003C08CEA07073A435B1C0C2BF4D3D2B279
:102AA00042B1009041F247432A46012100F0B1FAB9
:102AB00030461BE00C20C4F8C00004F1D00102A88D
:102AC0004CC84CC1A06BD0F8300320B1FFF793FF86
:102AD00004D40A2001E06068401C60600FF24000EE
:102AE000009041F2634300F092FA002005B0F0BD7F
:102AF000008BFFFF3D3E2070617273652066696E3A
:102B000069736865640000006261642066696E69CB
:102B100073686564206D657373616765000000000C
:102B20003C3D2070617273652066696E69736865EB
:102B30006400000000F010BD38B50446A06C08B178
:102B400000F050FC606B08B100F08EFCA06B08B187
:102B500000F062FCA06C6C4D20B92A68C0210120F5
:102B60009047A064606B20B92A68782101209047C3
:102B70006063A06B28B92A684FF452710120904716
:102B8000A063A06B00281CBFA06C002801D0606B64
:102B9000C0B90FF2B8002B4A5A4D009041F2C6431B
:102BA000012100F036FAA06B29688847A06C2968DB
:102BB0008847606B296888470020A063A064606331
:102BC000594832BDFFF7B6FFA56CC021284605F075
:102BD000D7FC05F1500001F063F905F1880001F020
:102BE0005FF905F1380000F0A4FF05F1440000F0A2
:102BF000A0FFA46B4FF45271204605F0C1FC4FF4C6
:102C0000AA702518284602F02FF80021284602F065
:102C100037F84FF4E0702518284602F099FD01219D
:102C2000284602F0A1FDDFF8D409C4F8980202207A
:102C3000206004F1080005F0DFFC0320C4F8440123
:102C4000002032BD9837000850380008616C6C6F66
:102C5000632829206F662073736C207375622D635F
:102C60006F6E7465787473206661696C65640000CA
:102C70007CB50446244D216041F2B5362A683146C0
:102C800001209047A06538B12A683146012090475D
:102C900004F18C01086088B90FF2740000F0E2F8CA
:102CA000019641F21F53012100F0B3F91549A06DBF
:102CB000096888470020A0651B4876BD4860086801
:102CC0000830886008680B30C86008680D300861FB
:102CD00008680D304861A06DE065A06D0830206681
:102CE000A06D0B306066A06D0D30A066A06D0D303C
:102CF000E0662046BDE876401EE700000089FFFF41
:102D00000086FFFF2808002024080020102D00085E
:102D1000616C6C6F63282564206279746573292067
:102D20006661696C656400000081FFFFD2D9FFFF16
:102D3000426F61F3000242677047426F61F34102E4
:102D400042677047426F61F3830242677047416395
:102D5000826370478161C26170470161426170475F
:102D600041628261C36100990162704701667047E8
:102D70004164704770B51646DFF8EC2904460D46ED
:102D800012680C210120904700B934E00021056051
:102D900081604660216811B9206004E011468A68AC
:102DA000002AFBD18860002070BD4830E2E7C16492
:102DB0000265704770B50D00044607D0284600F044
:102DC000E3FF0646711C01D0FF2E02D9DFF89409FB
:102DD00070BDDFF89429126801209047C4F8B40050
:102DE00000B908E03246294600F0F6FFD4F8B410E6
:102DF0000020885570BDDFF8740970BD8089FFFF21
:102E0000016B09B1086E7047406B08B1006E7047E6
:102E100000F056BC38B50446256C0DB9052032BD0E
:102E200005F15000FDF7B2F9801E05D0001F022801
:102E30000CD8A868401D32BD15F1500069691DBF4E
:102E4000286D0028406900204018F3E70FF6B41001
:102E500000F008F841F66803012100F0DAF8DFF825
:102E6000140932BD0FF63012009070470168DFF888
:102E70000029496FC06AC1F3821152F8211030B1A4
:102E800090F8700052F82000884238BF014608468A
:102E90007047DFF8D008704701001CBF0A68002A9D
:102EA000DFF8D40800D1F4E792F87420D2075CBFB1
:102EB000084607F009BF7047000000000082FFFFCE
:102EC00070B50446002582B0002C1CBF2068002885
:102ED00000D16CE00FF690100FF6BC06009041F6A2
:102EE000BF03324600F094F86068102804D02046F2
:102EF000FFF7D2FF0500F7D00FF67C10009041F6E7
:102F0000C903324600F084F8284676BD7CB50446F5
:102F10000FF67410FFF75EFD41F6F60300F077F848
:102F20002046FFF709FEB8B960600120A060204686
:102F3000FFF7C6FF060007D00FF65C100090019661
:102F400041F60D13FFF718BA0FF66410009041F622
:102F5000111300F05CF8002076BD7CB504001CBFA6
:102F60002068002807D0A0680FF62C0501280FD094
:102F70006068102800D01AE02046FFF7C7FF06005F
:102F800013D00FF63C100090019641F63E130AE074
:102F90002046FFF795FF060007D00FF6FC000090D3
:102FA000019641F64613FEF789FF304676BDDFF8FD
:102FB000B40776BD38B504466068102813D1A06800
:102FC00003281FBF2568686FC0F3802000280AD03F
:102FD000E06D00F017F8012807DAD4F8900000F04F
:102FE00011F8012801DA002032BD0FF6EC00FFF7DE
:102FF00039FF41F66113012100F00BF82046BDE8CE
:103000003240AAE7082205F1680105F033B92A46E3
:103010000221204601F0CBB82DE9F24F05460024ED
:1030200082B0002D1ABF28680028DFF838079046C4
:103030005DD00FF6D0000FF26079009041F6711369
:103040004A46022100F01EF92846FFF7B3FF0600AA
:1030500008D0019641F685130FF6B000009000F0FD
:103060000AF9D4E06868DFF814B7102806D02846BB
:10307000FFF726FF07465F451ED10124286F002871
:1030800040F0DC80696D080009D0E86C884710F1D9
:10309000010F04D12868016E2846FDF795F80FF25C
:1030A000B076DFF8DCA6A4B92846FEF70DFC0700D1
:1030B0000FD0574508D119E0002FDFD0019741F616
:1030C00093130FF2D4707CE00197009641F6A81399
:1030D00078E0A86F002804BF686F17280DD1284634
:1030E000FEF7F2FB070008D0574501D10020C0E0F1
:1030F0000197009641F6B81364E0686FDFF88466C4
:10310000DFF884A6162863D10FF61C0000904FF458
:10311000CE534A4600F0B5F82868416F11F001021D
:103120000DD1EB6E1B78002B04BFD5F88030042B3B
:1031300005D00FF61000009041F6C71370E0002A8A
:103140001EBFEA6E1278012A05D00FF6200000900B
:1031500041F6D41364E0C1F3802141B1D5F8BC102D
:10316000002902BF406FC0F3011000281DD10FF6E7
:103170002400009041F6E4134A46032100F082F84F
:103180006869012806DB642201212846FEF763FDF9
:10319000E0B16EE00FF26C6000904FF4D0534A46FD
:1031A00000F06FF8DFF8CC0563E02846FFF7AEFECD
:1031B00007465F451FD04FB1019741F615230FF227
:1031C0000070009000F057F8384652E09CB91EE0BD
:1031D000A86803280FD12868416E00290BD4E9683C
:1031E000491CE960406E884205DA0FF2D070009009
:1031F00041F6272314E0686F15280AD10FF2F0700A
:10320000009041F631234A46022100F03BF8304657
:103210002FE0172809D00FF60000009041F6372361
:103220004A4600F02EF8504623E0E86E28676868AA
:10323000102803D100212846FCF7C6FFA86F296F8C
:10324000804588BF80460298424600F0C5FDA86FC1
:10325000B0EB0800A86741F661231CBF286F40440B
:1032600028674A460FF2D0700090022100F00AF859
:103270004046BDE8FE8F4A460121284600F0BDBF0A
:1032800042460121284600F092BFF0B583B00446C3
:103290000F461646FFF7EAFD054604F1A000B542C9
:1032A00088BF3546C1680FF2F04659B12046FDF798
:1032B000D9FF07001DD00FF260500197009041F632
:1032C000852311E01721856041602A460068394650
:1032D00000F082FD00F012F807000AD00FF25450FF
:1032E0000197009041F691233246FEF7E8FD3846FB
:1032F000FEBD2846FEBD6068401C60602046FEF7AB
:1033000087B82DE9FC4104460FF23470FFF762FBE9
:103310000E46904641F6C623FFF779FE002C1ABFF1
:1033200020680028DFF83C042AD02046FFF742FE40
:10333000070005D0019741F6CE230FF2D0500CE0E4
:10334000606810280ED02046FFF7BAFD070009D0AC
:10335000019741F6D7230FF240500090FEF7AEFDE3
:1033600038460DE0424631462046FFF78EFF0646BE
:103370000FF2D860009041F6E223FFF748FE304696
:10338000BDE8F6817CB504001CBF2068002800D190
:103390000DE60FF2C460FFF71DFB41F6F123FFF7C6
:1033A00036FED4F8AC0020B12046BDE87640FDF7EB
:1033B00059BF606810280ED1002201212046FEF777
:1033C0004AFC060007D00FF2A8600090019641F673
:1033D000FC23FEF7D1BF0FF2B860009041F6013335
:1033E000FEF7D1BF10B5040015D004F1500000F075
:1033F0005AFD04F1880000F056FD04F1380000F099
:103400009DFB04F1440000F099FB2046BDE810400C
:10341000C021FCF7D4BE10BD70B5040023D04FF41A
:10342000AA70204401F023FC4FF4E070204402F025
:1034300092F904F1080005F0E3F84FF49E702518A6
:10344000DFF81C63286831688847E86820B1856820
:10345000316888472800FAD12046BDE870404FF413
:103460005271FCF7ACBE70BD38B504000ED0E06DF3
:10347000BB4D20B104F081FEE06D29688847606E85
:10348000296888472046BDE83440C7E031BD0000C8
:103490008081FFFF2DE9F041040082B059D00FF286
:1034A00008600FF2F425AE4F009041F68F33FFF71E
:1034B000AEFD04F1300641F2B538F06D28B1414659
:1034C000FCF77DFEF06D39688847B06A28B1414647
:1034D000FCF775FEB06A39688847706920B1FFF75C
:1034E00081FF706939688847B06880B1FFF794FF41
:1034F000B069FFF777FF7068FFF7B6FFB06839680B
:103500008847B06939688847706839688847306883
:1035100020B1FFF7A9FF306839688847D4F8B46054
:1035200056B1304600F030FC01463046FCF747FE0D
:10353000D4F8B400396888470FF27450009041F60F
:10354000D033FFF764FD2046BDE8FC41DC21FCF7E9
:1035500036BEBDE8F38100BF782105F011B8F8B59B
:1035600004460E4617461D46FFF7E2FB3946204645
:10357000FFF7E3FB3EB9606F20F00C0040F4805091
:1035800040F008006067FF22606F804E40F40070DA
:10359000606707211020606604F1680007F0DCFE18
:1035A00004F16F000021022D017012D10321C170BE
:1035B00001714170817006F11800E060A0606060E8
:1035C00020607348606406F12400606506F13000F5
:1035D00011E00321C170012101710321417081704B
:1035E00001F0BCF8E060A06060602060666569483A
:1035F000606407F0CFFEA0650020F2BDE52400085E
:1036000070B50446564DA06C002803E08668296812
:1036100088473000FAD12046BDE870407821FCF799
:10362000CEBD10B50446012104F091FE08B1012081
:1036300010BD0421204604F08AFE00B1032010BD15
:10364000012804D0032801D10420704700207047CE
:10365000401E052810D8DFE800F0030507090B0D10
:1036600003207047042070470520704706207047EC
:10367000072070470820704700207047C01E0528AB
:1036800010D8DFE800F0030507090B0D0120704793
:1036900002207047032070470420704705207047C0
:1036A00006207047002070470068806D40B190F997
:1036B00000202AB110F9012B8A42F8D1002070476E
:1036C0004FF0FF3070470068406D38B102682AB192
:1036D00050F8042B8A42F9D100207047F0E72DE919
:1036E000F0410446174600260020012F1D460FD149
:1036F00091F90A10491E09D0491E022908D9491F0B
:1037000004D0891E012998BF082002E0202000E093
:1037100080200146204604F00BF94FF0FF3820B11D
:10372000286840F4006028604646012F0CBF0FF265
:1037300088310FF290310822204604F013F920B1AD
:10374000286840F48050286046463046BDE8F08145
:103750001870597070471A7802605878086070477E
:1037600028080020008FFFFF240800200081FFFFB1
:10377000B40700200094FFFF808FFFFF0095FFFF3C
:10378000808DFFFF0097FFFF0089FFFF800700206B
:103790002808030864820008433A5C47505F53746A
:1037A0006F72655C496F545C53544D33324375629C
:1037B00065457870616E73696F6E5F436C6F756499
:1037C0005F4157535F56312E312E305243335C4D9B
:1037D0006964646C6577617265735C54686972646E
:1037E0005F50617274795C6D626564544C535C6CBB
:1037F0006962726172795C73736C5F746C732E634F
:103800000000000073686F756C64206E65766572E9
:103810002068617070656E006D626564746C735FC2
:1038200073736C5F666C7573685F6F7574707574B5
:10383000000000006D626564746C735F73736C5F8D
:1038400077726974655F7265636F7264000000006F
:103850006D626564746C735F73736C5F72656164D1
:103860005F7265636F7264003D3E2068616E6473D1
:1038700068616B65000000003C3D2068616E647308
:1038800068616B65000000003D3E2072656E6567F3
:103890006F746961746500006D626564746C735F58
:1038A00073736C5F68616E647368616B65000000C0
:1038B0003C3D2072656E65676F74696174650000D8
:1038C00073736C5F73746172745F72656E65676F3A
:1038D00074696174696F6E007265636F72642063EE
:1038E0006F756E746572206C696D697420726561A4
:1038F000636865643A2072656E65676F74696174A8
:10390000650000003D3E20726561640073736C5F6A
:10391000636865636B5F6374725F72656E65676F22
:103920007469617465000000726563656976656439
:103930002068616E647368616B65206D6573736187
:103940006765000068616E647368616B652072650D
:1039500063656976656420286E6F742048656C6CB9
:103960006F526571756573742900000068616E643B
:103970007368616B6520726563656976656420288C
:103980006E6F7420436C69656E7448656C6C6F294A
:10399000000000007265667573696E672072656E5F
:1039A00065676F74696174696F6E2C2073656E64EE
:1039B000696E6720616C65727400000072656E65E7
:1039C000676F74696174696F6E2072657175657374
:1039D0007465642C20627574206E6F7420686F6E3D
:1039E0006F72656420627920636C69656E74000093
:1039F00069676E6F72696E67206E6F6E2D66617497
:103A0000616C206E6F6E2D636C6F737572652061D3
:103A10006C65727400000000626164206170706CFB
:103A200069636174696F6E2064617461206D657390
:103A300073616765000000003C3D207265616400B1
:103A40003D3E207772697465000000003C3D2077A0
:103A500072697465000000003D3E207772697465EC
:103A600020636C6F7365206E6F7469667900000067
:103A70006D626564746C735F73736C5F73656E64A1
:103A80005F616C6572745F6D65737361676500007B
:103A90003C3D20777269746520636C6F7365206E9E
:103AA0006F746966790000003D3E206672656500AE
:103AB0003C3D2066726565002B0601050507030184
:103AC000000000002B0601050507030200000000AE
:103AD000002209F09DBB03681AB95A1E026008460D
:103AE0007047197811B94FF0FF307047591C0160C9
:103AF00018787047002918BFFFF7EABF7047000029
:103B0000C01E062813D8DFE800F004080A0C0E10C7
:103B100006008E4870478E4870478E4870478E4822
:103B200070478E4870478E4870478E487047002017
:103B300070470021002200230EC0704710B504001A
:103B40001CBF2168002913D0606808B1496A884702
:103B5000A06840B12168C9684900FFF7CBFF8249DE
:103B6000A068096888472046BDE810400C21C1E7DD
:103B700010BDF8B504460D0018BF002C164601D143
:103B80007A48F2BD286A7A4F8047606050B15EB1D2
:103B9000784AE968126802209047A06020B96068FE
:103BA000696A88473846F2BD25600020F2BD80B5BD
:103BB00000281CBF0168002900D104E040680969A1
:103BC0008847002002BD694802BD80B500281CBF9F
:103BD0000368002B00D1F6E740685B699847002036
:103BE00002BD80B500281CBF0268002A00D1EAE7A8
:103BF000406892699047002002BD10B50400084655
:103C000011461A4600D15CE0E3699847002010BDD8
:103C10002DE9F04190B004000D461CBF2168002939
:103C2000904601D0A06808B9504839E0C8684045BE
:103C300010D200F088F8236860685B694246294624
:103C40009847226860689269694690472068D0F872
:103C500008806D462068A768C1687E1836223846FD
:103C600009F0D2FA2068C1685C22304609F0CCFA2B
:103C7000002008E0395C2A5C514039542A5C315CF0
:103C800051403154401C4045F4D340216846FFF771
:103C900031FF00F057F800F03DF839469847002012
:103CA00010B0BDE8F08110B500281CBF0368002BE0
:103CB00001D0846804B904E040685B69984700203B
:103CC00010BD2A4810BD70B590B004001CBF22681A
:103CD000002A0D4601D0A06808B9244817E0D16831
:103CE0009269461860686946904700F02BF800F02A
:103CF00011F83146984723689A6860685B6969469D
:103D0000984722686068926929469047002010B061
:103D100070BD00002368DA6860685B69704738B579
:103D200004001CBF2168002901D0A5680DB90F4807
:103D300032BD00F008F8FFF7EDFF29469847002054
:103D400032BD00002168606809690847CC1C03087F
:103D5000FC1C03082C1D03085C1D03088C1D0308B4
:103D6000BC1D0308EC1D03082808002000AFFFFF5E
:103D700080AEFFFF2408002008B18068C0B2704701
:103D800000B140687047000000F10103810704D0D2
:103D900010F8011B89B18107FAD10268B2F1013133
:103DA000914311F0803F04BF50F8042FF6E710F85C
:103DB000011B11B110F8011BFBE7C01A70478268A4
:103DC000521C8260426832B10268531C0360117059
:103DD0004168491E4160704762B38B0708D0521E8C
:103DE00011F8013B00F8013B00F024808B07F6D16D
:103DF000830740F0208000BF103A07D330B4B1E809
:103E00003810103AA0E83810F9D230BC530724BF5C
:103E1000B1E80810A0E8081044BF51F8043B40F88E
:103E2000043BD20724BF31F8022B20F8022B44BFF9
:103E30000B7803707047083A07D3B1E80810083AC6
:103E400040F8043B40F804CBF7D25307E4E702689C
:103E5000531C036011707047DFF8102300E0083234
:103E6000516829B192F900308342F8D10846704771
:103E70000020704730B5DFF8F43200E008335C68AA
:103E800064B1A56995F90050854201BF65688D420E
:103E900094F901409442F1D1586830BD002030BD02
:103EA000382104F06DBB10B504000BD0606B18B165
:103EB00021688969496988472046BDE81040382152
:103EC000FFF706BE10BD38B504460D0018BF002C24
:103ED00000D14EE0382104F053FBA8690069804707
:103EE000606310B9DFF8880232BD2560002032BD62
:103EF00070B504001CBF2568002DDFF878021DD0C6
:103F00002E7CB60702D46E68964217D16260237287
:103F1000012B1EBF95F90120032A052A06D1AB69A2
:103F20006268606B9B68BDE87040184733B9AB6945
:103F30006268606BDB68BDE87040184770BD38B5DB
:103F400004001CBF2068002813D091B1112A01D3AE
:103F5000894832BD037CDB0708D515462A4604F1A3
:103F60002000FFF739FF2563002032BDC568AA4253
:103F7000F4D2804832BD00281CBF0168002900D15E
:103F80005AE00021C16100207047F8B504000846DE
:103F90001CBF2568002D11462DD0069A5AB3002665
:103FA000166095F901706E69012F0CD1B14201D0F4
:103FB0007248F2BD1160024694F90810606BAC695A
:103FC0006468A047F2BD062F07D111600246606BFE
:103FD00001B0BDE8F04009F028BB0EB96848F2BD59
:103FE00098420AD1E069002802BFB1FBF6F006FB57
:103FF0001010002801D05F48F2BD5F48F2BD0028D4
:104000001CBF0168002900D002B915E0002313602D
:1040100091F90110032918BF052903D0062918BFFB
:10402000072901D100207047012903D1C06910B1CF
:1040300052487047504870474E487047F0B583B0BB
:1040400005461E46FFF77BFFC8B92846FFF793FFDA
:10405000A8B9099F0A9C089A00943B463146284615
:10406000FFF793FF58B92068391801AA2846FFF7CF
:10407000C6FF20B920680199081820600020FEBD05
:104080002DE9F04387B0046894F901900E9D0F9ECE
:10409000DDF84080119FDDF848C0DDF84CE0149C4D
:1040A000B9F1060F10D1CCF80080CDF818E00594D6
:1040B000019304970396029500920B46406B42468B
:1040C000012109F0ACFB11E0B9F1080F0DD1CCF8DA
:1040D000008005940093CDF810E0039702960195B7
:1040E00000F053F809F093FD00E0234807B0BDE865
:1040F000F0832DE9F04786B0046894F901A00E9E84
:104100000F9FDDF84080DDF844C0DDF848E0139CE7
:10411000149DDFF87090BAF1060F0ED1CEF8008032
:10412000CDF814C0049703950294009300F02CF886
:1041300009F092FB10F1120F10E0BAF1080F10D144
:10414000CEF80080059504940093CDF80CC002973A
:1041500000F01AF809F071FD10F10F0F02D1484676
:1041600000E0054806B0BDE8F08700008C110308A8
:10417000809EFFFF009FFFFF809FFFFF809DFFFF4E
:10418000809CFFFF009DFFFF019613460A46406B8F
:1041900041467047DFF8FC140860704710B582B0E4
:1041A00004680498009060692469A04713BDF0B5C5
:1041B000ADF5017D04001CBF206800280D461646A1
:1041C0001F4617D00069A8B100F0F4F812DB869AF8
:1041D00087AB4FF4007101A809F05EFDB0F5FF7FD9
:1041E00005D801AA0A21115410440021417001A8E8
:1041F00000F028F80DF5017DF0BDF0B50446ADF5F1
:10420000037D206800281CBF006900280D46164663
:104210001F4614D000F0CEF811DB899810F5D24F6C
:104220000DD04142019100904FF40071889B0FF234
:10423000684202A809F04EFD02A800F003F80DF54F
:10424000037DF0BD00903B46324629462046A5E757
:104250002DE9F04F0446ADF5077D206800250028C4
:104260001CBF00690028884691469B465ED0DFF857
:1042700024040068404559DB929F0FF238420FF248
:10428000504A00974FF40071909B06A809F022FD58
:1042900000F055F8112101A804F072F9002604E09D
:1042A00001A906F00F02761C8854BE4238BFB6F54D
:1042B000805F27D216F00F0F13D15EB106A801ABB5
:1042C000524600F037F800F03AF8112101A804F046
:1042D00057F9002506A833460FF2FC3200F02AF801
:1042E000451991980FF2F832835D06A800F022F884
:1042F00045199198805DA0F120015F2934BF40B23B
:104300002E20CDE72FB911E076A209F0E3FC451984
:10431000761C06A8401916F00F0FC5F50071F3D1F1
:1043200001AB524609F0D6FC00F009F80DF5077D07
:10433000BDE8F08FC5F50071401909F0CBBC06A8A7
:1043400000905B464A464146204627E72DE9F04368
:104350000446ADF5037D206800281CBF00690028D5
:104360000D46904699461CD000F024F819DB8A9E31
:104370000FF27432334600F018F88B9F019700F06B
:104380001DF800F022F833460FF2643200F00DF809
:1043900007F10C0001904B4602A800F02AF900F04A
:1043A00014F80DF5037DBDE8F0834FF4007102A809
:1043B00009F090BCB7480068A842704702A8009076
:1043C0004B4642462946204670472DE9FD4FADF544
:1043D000027D0068012600281FBF006900288F9D0C
:1043E000002D88464FF000096BD0AA480068404570
:1043F00067DB6868441E00E0641E24B1A86850F8BA
:1044000024000028F8D01F20A96851F82410C140CA
:10441000C90701D4401EF7D500EB4410401C0090A2
:104420004FF400718E9B0FF2D02201A809F052FCCC
:1044300000F05AF8641C4F4635E01EB100F045F814
:1044400000282FD04FF0030A4FEACA0B2EB100F01C
:104450003CF820FA0BF0000621D0F81007EB1070A2
:1044600000260011B7EB001006D1012F04DB00F08D
:1044700032F800F039F8B146A8680FF2642200EB78
:104480008400C9F5007150F8040C20FA0BF000F01C
:10449000FF0301A8484409F01DFC81447F1CBAF1C8
:1044A000010AD1D5641EC8D13EB101A876A2C9F5D2
:1044B0000071484409F00EFC814400F00CF800F053
:1044C00013F80DF5057DBDE8F08FA86800EB8400BA
:1044D00050F8040C704701A86CA2C9F5007148445B
:1044E00009F0F8BB2020200001A80090849B839A4B
:1044F0008298414652E62DE9F04F8FB00446884637
:1045000091469B46242106A804F03AF8199806A97A
:1045100003F0F8FF28B10FF20020009000F039F806
:104520002BE000250FF20C260FF2002A0C2106A822
:104530006943471897F90000F8B17868189B009014
:104540005246102102A809F0C5FB00208DF8170083
:104550003856012804D100F013F8FFF736FF09E0C0
:10456000022804D100F00CF8FFF7F0FE02E00096FC
:1045700000F00FF86D1C032DD8D30FB0BDE8F08FFD
:10458000B86801905B4602A800904A464146204622
:1045900070475B464A4641462046FFE52DE9F04319
:1045A000ADF5017D0D4688990446904699460E4624
:1045B00017E00A2814D1701A471CB7F5007F28BFEE
:1045C00040F2FF173A4601A8FFF706FC01A90020B8
:1045D000C8554B4601A800F00CF8FFF7DFFD711C31
:1045E000761C96F900000200E3D10DF5017DBDE8CF
:1045F000F083009042462946204670472DE9F04757
:104600000446ADF5C16D2068002600281CBF006976
:1046100000280D469046994631D0DDF82C7677B3C8
:10462000FFF7C8FE2BDBDDF828A6761C0096534664
:104630000FF214124FF400710DF5816009F04AFB7E
:104640000DF58160FFF7BBFEFFF7A8FD3B4610A20A
:1046500040F2FF3102A802F0CFFDFFF7AFFEFFF7F7
:104660009DFF07F1BC0001904B460FF2E800FFF7F9
:10467000C0FFFFF740FFD7F83071002FD5D10DF5FF
:10468000C16DBDE8F0870000203030000A00000056
:10469000000000006413002025732829207265742F
:1046A00075726E656420256420282D30782530349D
:1046B00078290A0064756D70696E67202725732755
:1046C00020282575206279746573290A000000008E
:1046D000202025730A000000253034783A2000009D
:1046E000202530327800000025732858290000006A
:1046F000257328592900000076616C7565206F6666
:1047000020272573272028256420626974732920B7
:1047100069733A0A00000000696E76616C69642072
:10472000504B20636F6E746578740A00257325738F
:104730000000000073686F756C64206E6F742068F1
:10474000617070656E0A00002573202325643A0AA3
:10475000000000006372742D3E00000070B50F4C25
:104760002068C0B90FF29405261D0AE000F018F881
:1047700000281FBF90F908002A28286846F8040B73
:104780002D1D286818B104F13C018E42EED30020A3
:10479000306001202060201D70BD00003412002018
:1047A0000FF2E42100E020310A681AB18242FAD106
:1047B000084670470020704780B5FFF7F1FF10B939
:1047C0000FF2300002BD406802BD90F90A00401EA1
:1047D000022807D9C01E07D0C01E03D0801E0128A2
:1047E00004D905E00120704704207047022070477B
:1047F00000207047756E6B6E6F776E002CC00000E6
:1048000030C000009F000000ADC000009FC000004D
:1048100024C0000028C000006B0000000AC0000097
:1048200014C0000039000000AFC00000A3C00000A9
:1048300087C000008BC000007DC0000073C0000076
:1048400077C00000C4000000880000002BC00000FA
:104850002FC000009E000000ACC000009EC0000001
:1048600023C0000027C000006700000009C000004E
:1048700013C0000033000000AEC00000A2C0000062
:1048800086C000008AC000007CC0000072C000002A
:1048900076C00000BE0000004500000008C0000017
:1048A00012C0000016000000AB000000A7C000000E
:1048B00038C00000B300000036C0000091000000C6
:1048C00091C000009BC0000097C00000ABC000007A
:1048D000AA000000A6C0000037C00000B20000001F
:1048E00035C000009000000090C0000096C000009D
:1048F0009AC00000AAC0000034C000008F00000071
:10490000FFC000009D0000009DC000003D000000B1
:104910003500000032C000002AC000000FC00000B7
:104920002EC0000026C0000005C00000A1C000008D
:104930007BC00000C0000000840000008DC00000AB
:1049400079C0000089C0000075C000009C00000014
:104950009CC000003C0000002F00000031C000009F
:1049600029C000000EC000002DC0000025C00000BE
:1049700004C00000A0C000007AC00000BA0000001F
:10498000410000008CC0000078C0000088C000001A
:1049900074C000000A0000000DC0000003C0000049
:1049A000AD000000B70000009500000093C00000BB
:1049B00099C00000AC000000B600000094000000A8
:1049C00092C0000098C0000093000000A900000001
:1049D000A5C00000AF0000008D0000008FC00000E7
:1049E00095C00000A9C00000A8000000A4C00000FD
:1049F000AE0000008C0000008EC0000094C00000DB
:104A0000A8C000008B00000007C0000011C000001B
:104A100033C000008E00000005000000040000000C
:104A20000CC0000002C00000920000008A000000DC
:104A3000150000000900000006C0000010C00000C2
:104A40003BC000003AC0000039C00000B5000000C3
:104A5000B40000002D0000003B0000000200000038
:104A6000010000000BC0000001C00000B900000000
:104A7000B80000002E000000B1000000B0000000EF
:104A80002C000000000000002BC00000EC18030800
:104A90000E060400030000000300000003000000F5
:104AA00003000000000000002CC0000014190308DF
:104AB00010070400030000000300000003000000D2
:104AC0000300000000000000ADC000003C19030816
:104AD0002D06040003000000030000000300000096
:104AE0000300000000000000AFC0000060190308D0
:104AF0002D06040003000000030000000300000076
:104B00000300000002000000ACC00000841903088C
:104B10002B06040003000000030000000300000057
:104B20000300000000000000AEC00000A819030848
:104B30002B06040003000000030000000300000037
:104B400003000000020000002FC00000CC19030881
:104B50000E06030003000000030000000300000035
:104B6000030000000000000030C00000F41903083A
:104B70001007030003000000030000000300000012
:104B800003000000000000009D0000001C1A030844
:104B900010070100030000000300000003000000F4
:104BA00003000000000000009C0000003C1A030805
:104BB0000E060100030000000300000003000000D7
:104BC00003000000000000009DC000005C1A030804
:104BD0002D06010003000000030000000300000098
:104BE0000300000000000000A1C00000781A0308C4
:104BF0002D06010003000000030000000300000078
:104C000003000000020000009CC00000941A03088A
:104C10002B06010003000000030000000300000059
:104C20000300000000000000A0C00000B01A03084C
:104C30002B06010003000000030000000300000039
:104C4000030000000200000000000000CC1A03086E
:104C50000000000000000000000000000000000054
:104C600000000000000000006C2103F089BC002857
:104C70001CBF6C21FEF72CBF70476C22FFF7BCB83D
:104C8000002202604260B9B9DFF840298260DFF893
:104C90004029C260DFF83C290261DFF83C2942610B
:104CA000DFF838298261DFF83829C261DFF834295A
:104CB0000262DFF8342916E0DFF830298260DFF87D
:104CC0003029C260DFF82C290261DFF82C2942610B
:104CD000DFF828298261DFF82829C261DFF824295A
:104CE0000262DFF824294262816670472DE9F14FA4
:104CF000CEB0002206A84E9B03EB82039B6840F8CF
:104D00002230521C082AF6D3002201EB82035D7880
:104D10001C782D0445EA04649D78DB7844EA052478
:104D200023430EAC44F82230521C102AEDD300214C
:104D30000469D0F81C90D0F81480D0F818E00FF671
:104D4000CC03D0F808C04FEAF42A8AEAB41585EA01
:104D50007465A9448EEA080525400EAA03EB810379
:104D600085EA0E0502EB8102A9441D681668D0F899
:104D70000CA04D4406EB050B069ED0F8049035467A
:104D80004FEA753585EAB606069D86EAB557069E52
:104D900049EA060609EA050506EA0C0635433D44DC
:104DA000DA44AB444FEAFA2585EABA1585EA7A6512
:104DB000AE4488EA040505EA0A0585EA0805C0F854
:104DC0000CA0C0F81CB0AE445D68069F069EAE44C1
:104DD0005568AE444FEA7B3547EA0B0785EABB05C9
:104DE00006EA0B0607EA090785EABB553E43751933
:104DF000F444AE444FEAFC2585EABC1585EA7C659F
:104E0000A84484EA0A0505EA0C056540C0F808C014
:104E1000C0F818E0A8449D68A8449568A8444FEAE3
:104E20007E3585EABE0585EABE5500954BEA0E063D
:104E3000069F0BEA0E053E402E43009D7519C144A6
:104E4000A8444FEAF92585EAB91585EA79652C1950
:104E50008AEA0C0505EA090585EA0A05C0F8049006
:104E6000C0F814802C19DD682C19D5682D194FEA6B
:104E700078344EEA080784EAB8040EEA080607EA1E
:104E80000B0784EAB8543E433619069C2F1906973F
:104E900074190461069D2E464FEAF62686EAB51778
:104EA00087EA7565AA44069D8CEA0906354085EABD
:104EB0000C05AA441D69AA44156955444FEA743A81
:104EC0008AEAB40686EAB45A48EA040708EA0406FD
:104ED00007EA0E073E43564405EB0B0A06EB050BAB
:104EE0004FEAFA2585EABA1585EA7A65C0F81CA06A
:104EF000C0F80CB0AC44069D89EA050505EA0A0530
:104F000085EA0905AC445D69AC44556965444FEADE
:104F10007B3C8CEABB0686EABB5C44EA0B0704EAEE
:104F20000B0607EA08073E43664405EB0E0C06EB4A
:104F3000050E4FEAFC2585EABC1585EA7C65C0F8BC
:104F400018C0C0F808E0A944069D85EA0A0606EAEA
:104F50000C067540A9449D69A9449569A9444FEA86
:104F60007E354BEA0E0785EABE050BEA0E062740A2
:104F700085EABE553E437519C844A944C0F814805B
:104F8000C0F804904FEAF826069DDB69D26986EAEC
:104F9000B81686EA786675198AEA0C0606EA0806E3
:104FA00086EA0A0A55442B44D3184FEA793282EA3A
:104FB000B9024EEA090682EAB9520EEA090506EA82
:104FC0000B0646EA050991441A190261083109EBFA
:104FD000030210290692FFF4ABAE10210591059A49
:104FE000059C0EA901EB8201049140398A6BD1F82E
:104FF00004A013464FEAF34383EA72428B6B82EAC2
:1050000093224B6A9A184FEABA4383EAFA1383EA67
:10501000DA039A180B689A180EAB039243F824200F
:10502000059B0FF2E852D0F818C0D0F808B002EB98
:10503000830202920269C3694569069E069F4FEA90
:10504000F22484EAB21484EA7264E3188CEA050458
:10505000144084EA0C04E318029C2468E318039CBF
:1050600004EB0309069C4368A6464FEA7E3E8EEA9F
:10507000B40484EAB6541F431E4007EA0B0747EA0C
:10508000060EA644C4684C44F144C460C0F81C90A9
:10509000CF6BD1F808803E464FEAF64686EA77475E
:1050A000CE6B87EA962E8E6AB6444FEAB84686EAF9
:1050B000F81686EAD8067644B244049EC6F804A0E0
:1050C0004FEAF42E8EEAB41686EA7466B44485EA92
:1050D000020626406E40B4444FEA793E029E069F87
:1050E000766847EA09071F40B4448EEAB90686EAA3
:1050F000B95E069E06EA09063E43D4447644E3447C
:10510000B444C0F808B0C0F818C0D1F80CE0039E51
:105110000096039F4FEAF746009F86EA7746039F73
:1051200086EA9726CF6ABE194FEABE4787EAFE177E
:1051300087EADE07BE19B044049E361DC6F8048017
:105140004FEAFB2686EABB1686EA7B66751982EA79
:10515000040606EA0B0656407519029EB6687519D4
:105160004FEA7C3686EABC0686EABC560196454480
:1051700009EA0C06009649EA0C06069F3E40009F8D
:105180003E43019FF6194FEAFA47EB1887EA7A4740
:105190004360751987EA9A2A45610F6B0E69BA4414
:1051A0004FEAB64787EAF61787EAD607BA44049F5C
:1051B0003F1DF244C7F808A04FEAF32E8EEAB3175A
:1051C00087EA73673A444FEA753E84EA0B071F404B
:1051D00067403A44029FFF683A448EEAB50787EA7F
:1051E000B55700974CEA050E0CEA05070EEA090EC2
:1051F0004EEA070E009FBE44069F5244D7190697F9
:10520000724400F0FCF802614F6BD1F814E0B8442E
:105210004FEABE4787EAFE1787EADE07B844B04484
:10522000049E361DC6F80C800094069C27464FEA63
:10523000F72686EAB41484EA7766009C34193E4661
:105240008BEA03073E4086EA0B063419029E366954
:10525000341908EB04064FEA723484EAB20484EA93
:10526000B254009405EA020745EA020404EA0C0479
:105270003C43009FE71906EB090407EB06094FEAD8
:10528000FA4787EA7A4787EA9A2AC461C0F80C90FD
:105290008F6B8E69BA444FEAB64787EAF61787EAFA
:1052A000D607BA44049F3F1DF244C7F810A04FEA46
:1052B000F42E8EEAB41787EA7467BB44069F5F40FA
:1052C00027404FEA793E5F40BB44029F7F69BB4461
:1052D0008EEAB90787EAB957009742EA090E02EA4F
:1052E00009070EEA050E4EEA070E009FD3447744E5
:1052F000DC44BB4400F083F8C0F818C0C0F808B024
:10530000CF6BD1F81CE0B8444FEABE4787EAFE17DE
:1053100087EADE07B844B044049E361DC6F8148000
:105320004FEAFC2686EABC1686EA7C66F318069EDF
:1053300086EA040707EA0C077E40F318029EB66966
:10534000F31843444FEA7B3888EABB0686EABB5829
:1053500049EA0B0709EA0B0617403E4346445F192A
:105360004761F51845604FEAFA43096A039E83EAEC
:105370007A4383EA9A2333444FEAB14A8AEAF11620
:1053800086EAD101C918049B1B1D714499614FEA3B
:10539000F72A069B8AEAB71686EA7766334484EAD8
:1053A0000C063E407440E318029CE469E318CB18F5
:1053B0004FEA753181EAB50181EAB5510BEA05047E
:1053C0004BEA050505EA09052C43641899180161A3
:1053D000E11806910599083140290591FFF4FFADC8
:1053E00000214E9A50F8214002EB8102491C93683B
:1053F000E31808299360F4D34FB0BDE8F08F4FEA6B
:10540000F84787EA784787EA982870472DE9F041FE
:10541000160004460D462ED0206800F03F073018D5
:10542000B042C7F14008206002D26068401C606052
:10543000B7B1464514D3E01942462830FEF7CCFCFC
:1054400004F128012046FFF751FC4544A6EB08066D
:10545000002705E029462046FFF748FC4035403E3E
:10546000402EF7D23EB132462946E019BDE8F04160
:105470002830FEF7B1BCBDE8F08130B504460D46DA
:1054800083B061682068C90041EA50718DF803104B
:10549000C0000B0C8DF801300A0E0B0A010E8DF8BE
:1054A00004108DF80700010C8DF805108DF8002010
:1054B000010A8DF802308DF8061020780FF24C2189
:1054C00000F03F00382834BFC0F13802C0F1780244
:1054D0002046FFF79BFF082269462046FFF796FF0C
:1054E000A068000E2870A068000C6870A068000A10
:1054F000A870A068E870E068000E2871E068000CF1
:105500006871E068000AA871E068E8712069000E1F
:1055100028722069000C68722069000AA87220694C
:10552000E8726069000E28736069000C6873606936
:10553000000AA8736069E873A069000E2874A06966
:10554000000C6874A069000AA874A069E874E06996
:10555000000E2875E069000C6875E069000AA875FE
:10556000E069E875206A000E2876206A000C6876EB
:10557000206A000AA876206AE876A06E50B9606AB0
:10558000000E2877606A000C6877606A000AA877C6
:10559000606AE87737BDF0B59BB004460D46164605
:1055A0001F466846FFF760FB39466846FFF768FB11
:1055B0002A4621466846FFF729FF31466846FFF72D
:1055C0005CFF6846FFF753FB1BB0F0BD67E6096A56
:1055D00085AE67BB72F36E3C3AF54FA57F520E5114
:1055E0008C68059BABD9831F19CDE05BD89E05C1A4
:1055F00007D57C3617DD703039590EF7310BC0FFF7
:1056000011155868A78FF964A44FFABE982F8A42E3
:1056100091443771CFFBC0B5A5DBB5E95BC2563904
:10562000F111F159A4823F92D55E1CAB98AA07D81C
:10563000015B8312BE853124C37D0C55745DBE723F
:10564000FEB1DE80A706DC9B74F19BC1C1699BE4BF
:105650008647BEEFC69DC10FCCA10C246F2CE92D4F
:10566000AA84744ADCA9B05CDA88F97652513E9873
:105670006DC631A8C82703B0C77F59BFF30BE0C67A
:105680004791A7D55163CA0667292914850AB72708
:1056900038211B2EFC6D2C4D130D385354730A65A5
:1056A000BB0A6A762EC9C281852C7292A1E8BFA27C
:1056B0004B661AA8708B4BC2A3516CC719E892D1E4
:1056C000240699D685350EF470A06A1016C1A41967
:1056D000086C371E4C774827B5BCB034B30C1C3966
:1056E0004AAAD84E4FCA9C5BF36F2E68EE828F7425
:1056F0006F63A5781478C8840802C78CFAFFBE903F
:10570000EB6C50A4F7A3F9BEF27871C680000000DC
:105710000000000000000000000000000000000089
:105720000000000000000000000000000000000079
:105730000000000000000000000000000000000069
:105740000000000000000000000000000000000059
:10575000D82102F015BF00281CBFD821FEF7B8B928
:105760007047D822FEF748BB0022C0E90022C0E9FA
:10577000022271BBDFF8A02BDFF8A03BC0E90423B5
:10578000DFF89C2BDFF89C3BC0E90623DFF8982B61
:10579000DFF8983BC0E90823DFF8942BDFF8943B4F
:1057A000C0E90A23DFF8902BDFF8903BC0E90C2317
:1057B000DFF88C2BDFF88C3BC0E90E23DFF8882B59
:1057C000DFF8883BC0E91023DFF8842BDFF8843B47
:1057D0002DE0DFF8842BDFF8843BC0E90423DFF8F9
:1057E000802BDFF8803BC0E90623DFF87C2BDFF855
:1057F0007C3BC0E90823DFF8782BDFF8783BC0E971
:105800000A23DFF8742BDFF8743BC0E90C23DFF8C0
:10581000702BDFF8703BC0E90E23DFF86C2BDFF84C
:105820006C3BC0E91023DFF8682BDFF8683BC0E968
:105830001223C0F8D01070472DE9F14FADF53E7D31
:105840000A464FF0000C02EBCC0358781C78010498
:10585000987841EA046141EA0021D8780143187937
:105860000406587944EA0044987944EA0024D87937
:105870001EAB03EBCC032043C3E900010CF1010C88
:10588000BCF1100FDFDBBCF1500F4BDA1EA800EBB0
:10589000CC00A0F1800EDEE91C894FEA48314FEAC6
:1058A000D84041EAD94540EA49344FEAC90141EAC2
:1058B00058714FEAC80040EA59706940604081EA77
:1058C00099114FEA981444EA8964DEE91289DEE905
:1058D0000223604010EB080541EB09099246580885
:1058E0004FEA3A0A140A40EAC27644EA036411060F
:1058F000D20941EA13218AEA040042EA4362714074
:10590000504081EAD311DEE90023281849EB010158
:1059100080181EAA02EBCC025941C2E900010CF129
:10592000010CB0E7DDF8F8C2BE98D0E90401CDE97A
:105930001C01BE98D0E90601CDE91A01BE98D0E954
:105940000801CDE91801BE98D0E90A01CDE9160198
:10595000DCE90C45CDE91445CDE90C45DDF8F8C28C
:10596000DCE90E45CDE91245CDE90A45DDF8F8C27E
:10597000DCE91045CDE91045CDE90845DDF8F8C270
:10598000DCE91245DDE91C23DDE91A89DDE918AB04
:10599000CDE90E45CDE906454FF0000C00F03AF98F
:1059A00000F043F904EBCC0E6F41DEE900453619F7
:1059B0001EAC04EBCC0E6F41DEE9004500F008FAA6
:1059C00004EBCC0E6F41DEE9004536191EAC04EB4A
:1059D000CC0E6F41DEE9004500F06EF904EBCC0E11
:1059E0006F41DEE9004536191EAC04EBCC0E6F4169
:1059F000DEE9004500F0C6F84FEA1A7444EA0B14D9
:105A000046EA1B754FEA8B764FEA8A7746EA9A0692
:105A100047EA9B077C4075404FEA4B664FEA4A676E
:105A200046EADA1600F059FA04EBCC0E6F41DEE9D3
:105A3000004536191EAC04EBCC0E6F41DEE9004583
:105A400000F0ADF800F0E6F80CF1010C00F0EDF814
:105A500004EBCC0E6F41DEE9004536191EAC04EBB9
:105A6000CC0E6F41DEE9004500F0B2F904EBCC0E3C
:105A70006F41DEE9004536191EAC04EBCC0E6F41D8
:105A8000DEE9004500F018F904EBCC0E6F41DEE9C9
:105A9000004536191EAC04EBCC0E6F41DEE9004523
:105AA00000F070F846EA1B754FEA8B7646EA9A06D4
:105AB0004FEA1A744FEA8A77754044EA0B1447EAB2
:105AC0009B074FEA4B667C4046EADA164FEA4A6784
:105AD00000F003FA04EBCC0E6F41DEE90045361905
